:020000040000FA
:2000000000500020E9000000E1000000C9000000E5000000E5000000E5000000000000002E
:20002000000000000000000000000000E5000000E500000000000000E5000000E50000002C
:20004000C51C0000E500000081B60000E5000000611400004D190000E5000000E500000019
:20006000E5000000A9B60000E5000000E5000000E5000000E5000000E5000000E5000000DE
:20008000E5000000E5000000E5000000E5000000E5000000E5000000E5000000E500000038
:2000A000E5000000E5000000E5000000E5000000E5000000E5000000E5000000E500000018
:2000C000E5000000E12E0000044B1A68B2F5806F03D01B689B0500D4FEE7704728ED00E06A
:2000E000FEE700BFFEE700BF08B508F059FE104A104B9A420DD2D0430F4918440B4620F014
:2001000003000430084453F8041B834242F8041BF9D10A480A494FF000028842B8BF40F8AB
:20012000042BFADB00F032FBFFF7CEFF08BD00BF000000208C02002064E200009002002091
:20014000842F002010B50B4801F030FA0A4B01205C68A0470146094802F008FF0220A047DE
:20016000BDE81040C0EB401100EB81014911044802F0FCBE8CDD0000A4DF0000B8DD00004E
:20018000CCDD000070B504888CB005468CB1452C0AD188293FD0394B1B788B424BD04523CE
:2001A00001202B800CB070BD0023038003200CB070BD334801F0FAF9324801F0F7F9324BA1
:2001C00001219B68812098472046304901F040FF01F064FF2E484FF4207103F091FC0C261B
:2001E000FFF7B0FF19201A211B221C230190029103920493059406940794089400961021E9
:2002000004220B23022000F097F9224B2249186000F070F9C3E71E4B9A42C0D102200B9200
:2002200000F074FCFFF78EFF0B9A4FF42071104603F066FCB3E7194B9A4208D0184B9A42C6
:20024000ADD1032000F04EFC01F0A4F9A7E754680020A04706460120A04731460246114878
:2002600002F084FE0120A047802803DC012000F04DFC94E70C4801F099F9F7E7802F002022
:20028000E0DD0000E4DD0000A4DF0000F4DD0000C0020020D024002008DE000070DF000061
:2002A00080DF000018DE000048DE000010B504460368012203F1804303F508331A70322060
:2002C00000F0FEFF2368002203F1804303F508331A703220BDE8104000F0F2BFF8B5036810
:2002E0000C46042B00F1100613D03246303052F8043F04F0010103F1804303F5083382428A
:2003000019704FEA5404F2D13046BDE8F840FFF7CDBF3746314600F12005220951F8043F6A
:2003200002F0010003F1804303F50833A94218704FEA5202F2D13046FFF7B8FF04F00F04F3
:2003400057F8043F04F0010203F1804303F50833BD421A704FEA5404F2D13046BDE8F840FA
:20036000FFF7A4BF08B5C368002203F1804303F508331A70FFF7B2FFBDE808404FF4FA6075
:2003800000F09EBF30B4044610300246E368002503F1804303F508331D70203452F8043F92
:2003A00001F0010503F1804303F50833A2421D704FEA5101F2D130BCFFF778BF10B50A4B6A
:2003C000012153F820402046FFF7CCFF20460221FFF7C8FF0023A363636341F28830BDE864
:2003E000104000F06DBF00BFD42400200B4B53F820000B4B41B9196821F00401196041F068
:200400000801C9B2FFF7AEBF196841F00401196041F00801C9B2FFF7A5BF00BFD4240020DF
:20042000D00200200B4B53F820000B4B41B9196821F00201196041F00801C9B2FFF792BFAF
:20044000196841F00201196041F00801C9B2FFF789BF00BFD4240020D00200200B4B53F811
:2004600020000B4B41B9196821F00101196041F00801C9B2FFF776BF196841F001011960F2
:2004800041F00801C9B2FFF76DBF00BFD4240020D002002010B5154B012253F82040E3687E
:2004A000204603F1804303F508331A70FFF716FF636BA26801339342636300D010BDA36B05
:2004C0006168013300228B42A36308BF1346626308BFA263064A2046BDE8104052F8231051
:2004E00061F07F01C9B2FFF73DBF00BFD424002070DE00000EB430B5ADF5816D0DF214440B
:2005000054F8042B40F2FF310546234602A8019402F052FD9DF8081039B102AC2846FFF721
:20052000B9FF14F8011F0029F8D10DF5816DBDE8304003B0704700BF2DE9F04F764F83B06A
:200540003D68DDF8308055B9744C4FF0010E04F12006C7F800E044F8045FB442FBD1042A0C
:2005600001D0082A0BD1142809D8142907D86B4D002655F8044F3CB10136082EF9D14FF082
:20058000FF3003B0BDE8F08F002501908B4628463C219A46174603F097FEDDF804C0002D78
:2005A000EDD05F49002541F826500D990AF1804369610E990822A9610F9903F50833E961D4
:2005C0001099DFF8609129621199C5F804C0696212992A60A9621399C5F80CA0E9621499DC
:2005E000C5F810802963C5F808B06C63AC631C70D9F800305046DB6B984708F1804303F5D3
:2006000008331C70D9F800304046DB6B9847AF427DDDA046102555F8040F013400F18043B8
:2006200003F5083383F80080D9F80030DB6B9847BC42F0D148F6B80000F042FE042C42D03F
:20064000002530212846FFF78DFE48F6B80000F037FE30212846FFF785FE48F6B80000F0FC
:200660002FFE30212846FFF77DFE48F6B80000F027FE302100256B68012B08DD284641F019
:200680000801FFF76FFE48F6B80000F019FE30460121FFF7ABFE30460021FFF7C3FE3046F6
:2006A0000021FFF7DBFE00253046FFF787FE28460621FFF757FE28461421FFF753FE3046F4
:2006C00003B0BDE8F08F002503212846FFF75AFE48F6B80000F0F4FD03212846FFF752FE8F
:2006E00048F6B80000F0ECFD03212846FFF74AFE48F6B80000F0E4FD02212846FFF742FECD
:2007000048F6B80000F0DCFD2C602021B2E748F6B80000F0D5FD93E7D4020020D024002078
:20072000D4240020B4010010F0B5002706463C463D4683B0304600F0D5F90195019B9C4248
:2007400006DD00BF019B01330193019B9C42F8DC304600F0D1F90195019BC4F5C874A34209
:2007600006DA00BF019B01330193019BA342F8DB0137B7F5487F06D0B7F5C87FCCBFC7F567
:2007800048743C46D6E703B0F0BD00BF2DE9F041634C84B02368634801215B689847236890
:2007A00001210A461B685F48984708F075FE01F0A1FA01F039FA00F0C3F901F071FA00F0AB
:2007C00087F9594959485A4A012303600B6018461368FFF7A9FF08F063FE00F0B3FD00F060
:2007E000DFFC03F03BFC00F0A1FE03F065FB41F2342002F08BFA01F075F803F0D3FC4D485F
:2008000000F0D4FE4BF2016200214B4802F0AEFB4A4800F0CBFE0021494803F0F3FB03F056
:2008200019FA03F0B5F80220FFF77EFF454802F09DFB454B454C186800F0B8FE444802F094
:2008400095FB444B186800F0B1FE434802F08EFB2168424802F08AFBE469A04720B1A047DE
:2008600001463F4802F082FB0A2000F097FE002609F044FA02A808213A4D3B4F019600F0C4
:20088000CDFE9DF80F309DF80E4002AA03CA43EA0424D7F82C802860696002204AF6CD31DC
:2008A000C04721460320C04719210120C047082202A97B6B0B209847BB6A01A901209847AA
:2008C00001992A4802F052FB294B214629481C8002F04CFB284B6A6829685A60196008F0AB
:2008E00011FE3146254803F08DFB0220FFF71CFF3146234803F086FB224803F03DF800F07F
:2009000023FE0120FFF710FF03F0F0FA044600F033FE14F0FF0FF7D101F04CF8F4E700BF9F
:20092000D801001000400340080009400C4009402C20094080DE0000A4DE0000F4DD00001F
:2009400014010020BCDE000044E10000ACE10000C4DE000088E10000CCDE0000D4DE0000AF
:20096000D8DE0000E42D00204CE00000FCDE0000A024002010DF0000042500204401002009
:200980001000002084DD00002DE9F04104880646772C30D07E2C27D024B1002303800320C5
:2009A000BDE8F08103F080FA2F4F304B304D3A6818702C60002A45D02346A0462D4C04F885
:2009C000038093688020002198472B68013357F823202B60002AF2D1DBB2274A137077230D
:2009E00033800120BDE8F081204B1B788B4219D00120BDE8F081DFF880801D4D98F8002031
:200A00001E4F002393423B602B6007DA194CE156002919DB013393422B60F7DB3B68002B7D
:200A2000EFD1DCE7124D134CDFF84C80134F2B683A68E05C511C00F07F0098F80020E0543F
:200A40003960E7E71346C8E70849074A097852F82320002003F0AAFA0028E8D17E2333808B
:200A60000120BDE8F08100BF34000020802F0020DC020020F4240020B0240020D802002039
:200A800010B40F4B1C7864B10E4A1368984214D0002303E052F8041F88420CD00133A342CC
:200AA000F8D1094A0948135D63F07F0313555DF8044B03F0C7BA1C46F3E70024F1E700BF0D
:200AC000B024002034000020F42400201000002008B500F081F8024B00221A7008BD00BFC3
:200AE000B1240020034A137803431846137000F08DB800BFB1240020034A137823EA000331
:200B00001846137000F082B8B1240020034A137843401846137000F079B800BFB1240020C4
:200B200010B5064C042023685B699847236804205B6B98470128F9D110BD00BFB8010010B0
:200B4000F0B591B008F0A8FC0746FFF7E9FF1C4B4FF4A0601B68DB6998471A4B01211A4AAD
:200B6000196013689907FCD56D46184C00F000FA174801F04DF80FCC0FC50FCC0FC50FCC41
:200B80000FC594E80F00009C85E80F00621C0FD06D46104E336820469B6B98473368204689
:200BA0009B694FF40051984755F8044F631CF1D10FB111B0F0BD11B0BDE8F04008F070BCF5
:200BC000B8010010282008602820084028DF000020000020B4010010094B1A6802B17047C0
:200BE00010B50122074C1A6023680620DB6B984723680720DB6B9847034BC0221A6010BD1C
:200C0000E0020020B4010010A0200240074B0849C02208701A60C20744BF402243F8102CEF
:200C2000830702D5034B80221A607047A0200240B22400209020024008B5034B1B685B68F7
:200C40009847C0F3804008BDB401001028B1012806BF054BD86800207047044B1868C0F308
:200C6000403080F001007047F4020020C020024028B1012806BF054BD86800207047044B27
:200C80001868C0F3803080F001007047E4020020C02002408138012801D9002070470D2061
:200CA000FFF7CABF8138012801D9002070470E20FFF7C2BF802870B514460AD0812807D1FB
:200CC000E1B9BDE87040184B10461B685B6B184770BD154D1549012393402A680B60936BE5
:200CE000204698472B68204600211B68104A9847E0B21049BDE8704000F0BCBF0A4D0B4983
:200D0000012393402A680B60936B204698472B6820461B680021064A98472B682046BDE832
:200D200070401B6B184700BFB4010010E020024000400720510D000008B50D22FFF7BAFFF8
:200D4000012008BD08B50E22FFF7B4FF012008BD0D2838B51BD00E2800D038BD1B4C20465C
:200D600003F0BCF90028F8D02046042103F0A2F9174B1D68C5F38035C5B100F05DFAA368A6
:200D8000C31AE3601348BDE83840FFF779BE124C204603F0A3F90028DFD02046042103F0E6
:200DA00089F90B4B1D68C5F3403525B900F044FAE560A06038BD00F03FFAA368C31AE3600F
:200DC0000648BDE83840FFF75BBE00BFE4020020C020024080DF0000F402002070DF0000EE
:200DE00030B51B4A1B4B106883B000244FF4801501908DF800408DF8014001A81D60042135
:200E000000F0D2F820B9144BFF201D6003B030BD6846022100F0E6F80F4B1D6010B9FF2046
:200E200003B030BD9DF80030EF2B03D0C22B01D02046EBE79DF80100A0F11103012B05D925
:200E4000143801288CBF00200120DFE70120DDE790DF0000A02002409020024030B5164B3D
:200E600083B002AC05224FF4801504F8042D1D6000F0DCF82046012100F096F820B910E055
:200E80009DF80730DB0710D50DF10700012100F0A9F80028F4D1094B4FF480121A6003B0C4
:200EA00030BD064B1D6003B030BD044B4FF4801201201A6003B030BDA02002409020024084
:200EC00030B583B0FFF7CAFF08B903B030BD0E4B02A8B9224FF4801500F8012D01211D605F
:200EE00000F062F8094B0A241D60FFF779FF631E0028EAD013F0FF04F7D1044B4FF48012E6
:200F00001A6003B030BD00BFA02002409020024010B50A2182B0124800F09AF8114B142076
:200F20001B68114CDB6B9847104A4FF48013AB2102A8236000F8011D1360012100F034F8BC
:200F400008B1FFF78BFF084B4FF480121A60FFF747FFA0F10100B0FA80F0400902B010BD06
:200F600000093D00B401001090200240A020024008B5FFF7CDFFFFF7A3FFBDE8084000F07E
:200F8000C7B800BF08B5064B02201B685B6B9847012803BF034B186800F00100002008BD2C
:200FA000B801001078200840F0B583B005460C46FFF7E8FF074680B17CB1094E33684FF05A
:200FC00080405B6815F8011B984733684FF08040DB6801A99847013CF0D1384603B0F0BD44
:200FE000C4010010F0B583B005460C46FFF7CAFF0746B0B1ACB10C4E09E033684FF0804000
:20100000DB689847019B013C05F8013B09D0336800214FF080409B68984701A90028ECD197
:201020000746384603B0F0BDC401001010B582B0FFF7A8FF40B1054C23684FF080401B69CC
:2010400001A998470028F7D102B010BDC4010010F0B5264D07462B6885B002205B690E465C
:2010600098472B6802205B6B9847012804461F4BF7D11B684FF48070DB6998471C4B1D4AEB
:201080001C6013689B07FCD51B4A1C4913681C484FF0030E082523F00F030C460968136065
:2010A000C0F800E000220195009713460F684FF080401449B847144B29461B6800965D6C6E
:2010C00009224FF0FF334FF08040A8470F4A136843F00203136023684FF080401B6903A94D
:2010E00098470028F7D105B0F0BD00BFB8010010282008602820084014000040C4010010CE
:2011000020000040006CDC02B40100100400004010B5174B4FF480701B681B6A9847154B7B
:201120000121154A196013689B07FCD5134C082023689B6B984723684FF4005108209B6985
:201140009847236809209B6B984723684FF4005109209B69984723680A209B6B98472368C7
:201160000A209B694FF40051BDE81040184700BFB80100102820086028200840B4010010CC
:2011800010B5064C042023685B699847236804205B6B98470128F9D110BD00BFB80100104A
:2011A000F8B51A4A00200021C2E90001184B04201B685B6B9847012801D0FFF7E1FF144B53
:2011C00000201B68DB699847124B0121124A196013689B07FCD5114A11491368096823F44F
:2011E000807323F001030F4C13600B6820460E49984740F221200D4D0D490E4B042731260A
:20120000012227602E6008601A60F8BD90020020B801001028200860282008400C000140F7
:20122000C801001000000140002100043C000140080001400400244310B40949094C0B6860
:20124000226808688342FAD1DB01074903EB52620023C1E900235DF8044BD1E90001704730
:20126000082009400C2009409002002010B50B490B4C0B68226808688342FAD1DB0109493B
:2012800003EB52620023C1E9002302F061FC00B910BDBDE8104002F02DBC00BF08200940E7
:2012A0000C2009409002002010B508F0F5F8034B1C6808B908F0F4F8204610BD0820094042
:2012C00038B51A4B05461B6804205B6B9847012801D0FFF755FF154B154A1B680020DB693B
:2012E00014689847134B0121134A04F00104196013689807FCD5114B11491A460D60196855
:2013000041F4807119601368D905FCD404B138BD064B20461B681B6A9847064B0121064AFA
:20132000196013689B07FCD538BD00BFB80100105420084028200860282008400C00014080
:201340002C0001402DE9F04108F0A6F81D4E1E4B1E4F32680124002580464FF480314FF421
:2013600080703D601C60186019601368284623219847336820461B68242198473368022002
:201380001B6825219847124A1249136843F4E02313600D6008F0A4F80F4B1049104A1B6835
:2013A00000F50070086014603C601B6914209847B8F1000F01D0BDE8F081BDE8F04108F04C
:2013C0006FB800BF8401001004200940000024430020094008200940B00100101C2009409E
:2013E000A0022443431E012B10B41BD9042802D05DF8044B704700231A4610F004001CBFE4
:201400000E4C216013B10E4B0121196012B10D4B01221A600028EBD00B4B01221A605DF856
:20142000044B704710F0010302D0084A0123116010F00202E1D0064C2160DEE72020094013
:2014400080022443A0022443C0022443182009401C200940014B1868704700BF0403002002
:2014600008B509F0E9FD184B1860FFF7FFFE174B1B686BB9164B1B68E3B9164B1B6833B1B1
:201480001549164B00204FF4803208601A6008BD124B4FF480721A6008F022F800F205209C
:2014A0000F4B20F4FF7020F001001860084B1B68002BE2D00B49094B0020012208601A6046
:2014C00002F0E4FDD9E700BF04030020A000244380002443C0002443C002244304200940E8
:2014E0001C20094080022443820702D5034B01221A60C30700D4704707F0D2BF000C084002
:2015000008B507F0C9FF074B1A68012A03BF0649022219600022002814BF104642F00100FC
:2015200008BD00BF000C084051E5CC1A03490448044B012208601A60704700BF000008400D
:20154000FFFF0F00000C084038B5FFF7D9FF064C064D0749074A012325600B601360BDE8FD
:201560003840FFF7C1BF00BF00000840FFFF0F000C0008400401004303490448044B0122C3
:2015800008601A60704700BF00000840FFFF0F000C00084008B5FFF7D7FFFEE710B50446CD
:2015A000C0B200F0B3F9204610BD00BF70B506460024451E04E015F8010F00F0A7F901346D
:2015C00030460CF0B1FB8442F5D30A2000F09EF900F0B0F90128FBD0204670BD70B504461F
:2015E000B0B10078C0B1A9B10025661804E014F8010F38B1B44205D000F088F9631C05F10A
:201600000105F4D100F096F90128FBD0284670BD0546F7E70D46F5E70546F3E710B40B4B5A
:201620000B4C13F8012FFF2A0ED1A342F9D1094A39B11144013801390B78914200F8013FCE
:20164000F9D15DF8044B7047034AF1E7C7FF0100CFFF0100F0120050C8FF010080280BD00D
:20166000812806D141B9084A084B1160084619607047064B186870470349044A01230320F3
:2016800008601846136070470050094008030020813801289ABF024B18680020704700BFF8
:2016A00008030020064B1B6833B1012806D002280ABF044B00231B681846704707F0D8BBC1
:2016C000080300202850094038B50C4D02202B685B6998472B6802205B6B984701280446B3
:2016E000064BF7D11B684FF40070DB699847044B044A1C6013689B07FCD538BDB8010010B3
:2017000028200860282008402DE9F04340F2F275DFF8DC8083B0FFF7D7FFD8F800302A4EFD
:20172000DB682A4898473368294C5B69152098472368DFF8C090274F23F4FE63D9F800209C
:2017400023F0020323603D60D36B032098472249D9F800300820122208600092D3F840C084
:201760001A48022103221323E047D8F800301748D3F804C019494FF4E1326023E04740F2E0
:20178000011240F2013E1649164B142008601968154841F01001196003681449002B0CBF12
:2017A000134673460B603D60036853B12368326843F0500323601369152003B0BDE8F04336
:2017C000184703B0BDE8F083B001001000100040381000404410004090200240006CDC0276
:2017E000341000402C1000400C03002030100040D0010010B401001008B5064B02201B68E1
:201800005B6B9847012803BF034B186800F00100002008BDB80100106C20084038B50446C0
:20182000FFF7EAFF18B1254A13681907FCD4032C03D0234B1B6803B138BDFFF7DDFFE0B91F
:20184000204D4FF400702B681B6A9847032C2AD01D4B01211D4A196013689B07FCD50320CD
:2018600000F0F2F9022000F0EFF9132000F0ECF9BDE83840122000F0E7B9154B15481B686C
:20188000DB689847144B15201B685B69984740F2F270124A1249136823F4FE6323F0020316
:2018A00013600860CCE72B684FF400709B6A98472B684FF400701B6B9847C9E718100040AD
:2018C0000C030020B80100102820086028200840D001001000100040B00100103810004056
:2018E0004410004010B507F0D7FD0446054800F08FF9054B00221A6004B110BDBDE8104052
:2019000007F0CEBD400000200C03002010B50446FFF772FF08B9FFF7F7FE044B2146BDE839
:2019200010401B680248DB69184700BFD00100100010004008B5FFF75FFF18B1024B186850
:20194000C0F3C00008BD00BF1810004038B5FFF7BBFE40F2F2710C4B0C4A1B68116013F053
:20196000500F10D00A4C0B4D05E02B681B699847094B1B6823B923680848DB06F5D538BD71
:20198000C0B29847F7E738BD401000404410004018100040D00100100C0300200010004037
:2019A000034A136823F00403136030BF704700BF10ED00E070B507F06FFD02F0EDFA18B166
:2019C000BDE8704007F06CBD814802F001FC0225044648B1636823B19847A84228BF2846B3
:2019E000C5B22468002CF5D109F026FB794B04461B68002B40F08B8002F0AAF8002840F0F5
:201A00009280012D014600F0D680022DD8D1002840F0C3802846611EFFF7E4FC6C4802F01D
:201A2000D7FB06250446002800F0B080A368022003B198472369246825EA0305002CF5D136
:201A4000FFF79AFD6B0705F0060400F1A280002C40F0A78000F0A8F9002009F023FB5E4983
:201A60005E4A0B685E4823F003030B601368016843F00F0313608B6939209847594A5A4913
:201A800000231360184613600B6007F009FA062C00F08D80554C564D564E2B6823683268AB
:201AA00023F00303236053685348032198474C4B1B689B6B98472B6807F02AFB4F4A33684F
:201AC000002111604C485B680121984723684C4A012143F00303236011602B6807F04AFBDD
:201AE00009F0ACFAFFF7C2FBFFF746FD384802F06FFB044628B1E36803B198472468002CC6
:201B0000F9D107F0CDFCBDE8704007F0C9BC3D4B1B681B1A022B34D4A3F28F23002BBFF6CE
:201B20006BAF01232EE002F01BF80646FFF784FB361A002E7FF744AFFFF78CFC324B00EBC6
:201B400046211B1BCB423CD4012085427FF45DAF6FF007031B1BCB4230D404F58034631A8A
:201B600031EA230128BF21460220FFF73BFC274A136823F00403136030BFBDE8704007F0D5
:201B80008FBC00239D4228BF1D4635E7FFF7F4FC06241B4B00221A6059E72846FFF722FCBE
:201BA0003CE70F4B20461B689B69984752E7022007F0BCFB6EE704F58031D5E704F108011A
:201BC000D2E7022DC4D0012D7FF4FAAEC0E700BF1003002080022443001009400810094004
:201BE000B80100104010094020042243242208402C200940D80100100040034080010443A3
:201C00000C4009401820094071FDFFFF10ED00E00146014802F0DEBA100300200146014888
:201C200002F01CBB1003002010B5054802F0CCFABDE81040034B03201B6820211B681847D2
:201C40001003002084010010421C0ED010B50446064B4FF4C0421B6800211B689847044A87
:201C6000A3001A430023136010BD7047B4010010001A444238B504460D4607F00DFC012337
:201C80000549064AA3400B6042F8245000B138BDBDE8384007F004BCE020024014030020B7
:201CA000064B002103F1800243F8041F9342FBD1034B10201B681B69184700BF1003002067
:201CC000B0010010F8B5094B094F1D6800241D60012606FA04F32B42E0B203D057F8243031
:201CE00003B198470134202CF3D1F8BDE02002401403002000B585B00022412302A8029230
:201D0000039309F0AFF9042007F0B4FB032810D00420032107F086FB042007F0ABFB03280B
:201D2000FAD10090002106484FF040521C2307F02FFB02A809F0ECF905B05DF804FB00BF58
:201D400000A00C4000B583B00022412368468DE80C0009F087F9012007F08CFB012803D0E6
:201D60000320012107F05EFB684609F0D1F903B05DF804FB00B583B00022412368468DE8C5
:201D80000C0009F06FF9012007F074FB012803D0044B986B07F056F8684609F0B9F903B0B0
:201DA0005DF804FB4800001010B582B04123684600240193009409F055F90320214607F05A
:201DC00031FB012007F056FB18B1044B986B07F039F8684609F09CF902B010BD4800001018
:201DE00040F203122DE9F04F03888DB0934204462BD040F27912934206D0D3B100230380D3
:201E000003200DB0BDE8F08F844801F097FE18B3DFF83082824DD8F800200132092AC8F833
:201E200000204DDD07F038FB00232B7008B907F037FB7C4B7948196801F062FE40F20313E4
:201E4000012023800DB0BDE8F08F74480D4601F075FE28B9832D05D001200DB0BDE8F08F02
:201E6000832D03D1002323800220CAE7DFF8D8910021402248460BF009FF022101221A236E
:201E8000694889F8001089F8012089F802300BF04BFF074600F1010E3A46092509F105006C
:201EA0006149624EDFF89C8189F8045089F803E005370BF011FE5A4D00223760C8F8002015
:201EC00007F0EAFA01222A7000284CD009F060F9074600283DD0564A926990470028A1D146
:201EE00009F0BAFB06A8182140F6020209F09EFB9DF82B204F4B02F001026FF300024FF06F
:201F0000290E06A805A900268DF82B200B938DF82AE08DF8266009F043F901282ED0464816
:201F200004A909F03DF90FB309F0A0FB3B480C2101F0E6FD07F0B0FA00222A70D8B1D8F835
:201F40000020082A3FF769AF40F279130120238057E7FFF7F7FE09F0EBFA01287FF462AFAB
:201F6000FFF708FFBEE707F09BFAAFE709F04EFAFFF71AFFDAE707F093FAE0E706A809F09A
:201F800061F90128CBD13246284E25230394824634461E46DFF8B4B0DFF8AC904FF0000022
:201FA000236801460193254B06921A605A61CBF800209A601A6141F60503ADF81830204B8F
:201FC0006AF303006AF30301CBF810309DF8043009928BF81B108DF8250005A906A807928C
:201FE00008920B920292CDF828B08DF82660CBF81CA0CBF808908BF8063009F0D1F8029A7D
:2020000008B9039C8BE706A8019209F01BF90128019AF6D10136282EC0D1F2E7B803002043
:20202000B32400206400002068000020940300204CE0000088000020010002049C0300204C
:20204000EA2D0020C8030020CC0300209803002070B505460C46D1B10B7823B108460BF0D0
:2020600063FE1F2800D970BD0B4900228A604A60CA600A614A618A61CA610A6220460E1D55
:202080000BF052FE2146024630460BF025FD002DE9D0014B1D6070BD6400002008B507F09F
:2020A000A7F800F0020303F0FF0013B1064B187900B908BD0023054A19460548137001F0E4
:2020C000A1FF012008BD00BF64000020B324002054000020014B1878704700BFB324002083
:2020E00008B509F055F830B1044B5B88022B0CBF0120022008BD022008BD00BF900600206E
:2021000070B582B009F044F840B9144801A909F047F801280AD0002002B070BD0F4C6388B4
:20212000022B08BF0120F0D102B070BD08F084FF6FF03F05094C2D1A03E008F07DFFC542D2
:2021400009D56088054E0228F7D1A0F10200B0FA80F04009E8E77088F7E700BF9006002064
:2021600008B50346B32994BF0A46B422024819460BF0B2FC002008BD2207002070B5054614
:2021800007F08AF904462DB1124A134B12681A6094B170BD0F4B104D1E68002116F1804058
:2021A0002A684FF0000341F10001994208BF904206D32E60002CECD1BDE8704007F070B9DF
:2021C00008F03AFF054A064913680860013313602E60EFE704300440500600200C04002024
:2021E0008C06002030B589B002A8182140F6020209F01CFA164B9DF81A201B689DF81B4040
:202200001979144D61F3050211468DF81A205A7902A862F387118DF81A109A7901A9012360
:2022200062F347048DF81B4007958DF8163008F0B7FF012802D0002009B030BD02A809F0A5
:2022400001F8A0F10100B0FA80F0400909B030BDE4000020B800002008B5FFF7C3FF012870
:2022600001D0002008BDFFF74BFFC0B208BD00BF70B50E4D0E4E2C68002006E02379022B33
:2022800006D024682B68A3420ED02379032BF5D133780120002BF4D1064801F0D3FE24689E
:2022A0002B680120A342F0D170BD00BF58060020B4240020E401002010B582B009F0B0F9C4
:2022C000044608F065FF08B902B010BD084801A908F066FF0128F7D1638803F44063002B20
:2022E000F2D1638803F44063002BF5D0ECE700BF010001040B2807D00C2801D00120704727
:20230000042A11D002207047082AFBD10029F9D0094B0139A3F1080013F8012D834201F8C4
:20232000012FF9D1002070470029EBD0034B00201B680B60704700BFC006002054060020B6
:2023400010B584B008F024FF08B904B010BD42F20343002402A801A902940394ADF808302B
:2023600008F01EFF0028F0D09DF90A30803302D0204604B010BD9DF80C0000F00C00A0F1F6
:202380000400B0FA80F04009DFE700BF10B582B008F0FEFE00B3124C6388022B1CD1FFF75A
:2023A000CFFF0028FBD101A90E4808F0F9FE02E06388022B03D108F0EBFE0028F8D142F298
:2023C00002426388934207D042F20740181AB0FA80F0400902B010BD012002B010BD00BF34
:2023E000900600200100010430B585B008F0D0FEB8B10D4B5B88022B13D142F203450024EC
:2024000002A801A902940394ADF8085008F0C8FE38B19DF80A305B06F2D09DF80C0005B04F
:2024200030BDFF2005B030BD900600200B2801D001207047082A01D0022070470029FBD08C
:2024400008B50C4B083103F1080011F8012D03F8012F8342F9D108F09BFE50B1064B5B887C
:20246000022B05D1FFF792FFFFF74AFE032008BD002008BDB70600209006002008B5FFF781
:2024800029FE012809D008F083FE30B1074B5B88022B02D1FFF754FF08B1002008BDFFF7A7
:2024A000A3FFFF28F9D0C0F3801008BD9006002010B5FFF70FFE012823D0FFF741FF044668
:2024C0000028FAD1FFF762FF08F0A0FFFFF76CFC0D4B0E491A794C80022A08BF1C710C4BD8
:2024E0001A79022A04BF00221A710A4B1A79022A04BF00221A71084B1A79022A04BF002232
:202500001A71012010BD00BF1004002090060020A004002030050020C0050020F8B5FFF7F8
:20252000D9FD012832D0FFF70DFC08F031FE48BB1F4A20482049214B92F805C090F805E00F
:202540004F795E790125882465F3830C65F3830E65F3830765F3830682F805C0106080F850
:2025600005E00160C480D480CC804F710B601A60DC805E71FFF7FEFB08F0DAFFA84207D0E0
:202580000020F8BD0E4B5B88022BD1D10120F8BD0C4B1878003018BF012008F0E7FFFFF7A2
:2025A00021FE0128ECD1BDE8F840FFF7A9BD00BF10040020A004002030050020C0050020EC
:2025C00090060020B424002070B584B0072800F2AC80DFE800F01F61262F325C6C04544C7D
:2025E000217708F0D5FD10B36388022B1FD1FFF7CDFE01280CBF0024032408F0A7FF0020F0
:20260000FFF7BCFDFFF77CFD01280CBF2046032004B070BD01297DD0002975D0022004B083
:2026200070BD434C618608F0B3FD0028DCD1002004B070BD3E4C2186D3E731F00702EDD1A6
:202640003B4C3C48237EC1F3400561F30003DBB243F00203067865F38203657EC1F3800146
:2026600003F0870362F3C71362F3C7158E42657623760170B5D1304B228B184603A95A8036
:2026800008F08EFD00280CBF03200020C0E731F00103C3D1C8B2BBE7A1F10B030F2BBDD896
:2026A000234CC9B2A37B8B42C1D0A17399E701F115031A2BB2D8214D0C2455F834301F4891
:2026C00099424FEAC4022CDD14F1FF34F5D208F05FFD00289CD04FF0000205EBC40423799B
:2026E0006079A17903F03F0360F3871361F34702102403A802A98DF80E308DF80F20ADF882
:202700000C4008F04DFD92E70191FFF7D1FE019908467DE7FFF702FF012814BF03200020D9
:2027200076E7074B02441A60D1E7012070E700BF90060020B424002080060020DCDF00002C
:20274000E400002081B130B50C4683B0102800F28580DFE800F05C57524D6C6947412822FA
:202760001D83831915100B000220704705230B60002003B030BD6FF014030B600020F8E7E1
:202780001A230B600020F4E70B230B600020F0E7444B00201B780B60EBE7434B00201B7846
:2027A0005BB20B60E5E708F0F3FC002858D03F4B5B88022B54D140F20343002201A86946ED
:2027C0000192ADF8043008F0EBFC012863D06FF07F0323600320CCE7344B002093F91C30A1
:2027E0000B60C6E7324B00201B681B680B60C0E72E4B00201B8E0B60BBE72C4B00205B8E3D
:202800000B60B6E7294B00209B7B0B60B1E708F0BFFC30B1254B5888A0F10200B0FA80F072
:20282000400920600020A4E700200860A1E700231E4A0B60137E03F001030B60127E520742
:2028400044BF43F002030B601A4B1878002890D00B68002043F004030B608AE7012088E71C
:20286000FFF75CFE0128B2D140F20343002201A869460192ADF8043008F092FC01280DD072
:202880006FF07F05FFF714FE15F1800F25600CBF032000206DE79DF90250F5E79DF9025025
:2028A000F0E700BFB6240020B524002090060020E4000020B4240020F0B589B0074608F0BA
:2028C00067FC00284ED0344B5B88022B08BF002648D108F0B1FB6FF01F052D1A03E008F071
:2028E000ABFBC54245D5FFF72BFD01280446F6D000283ED102A8182142F6014208F096FE99
:20290000264D274BFFB28DF817702978069304949DF81430003118BF012123F00F030120FA
:202920008DF8143008F05CFE02A801A908F038FC28B3287800E040B3BDF80A3003F4406325
:20294000002BF8D0BDF80A40A4B2B4F5105418BF0124003018BF012008F056FEC6B92046CD
:2029600009B0F0BDFFF7DAFD012806D0012009B0F0BD3EB9022009B0F0BD0646A9E72878A3
:202980000124E6E7FFF794FDF4E7FFF709F8D0E7FFF78EFD2046EAE790060020B4240020CF
:2029A0002207002010B50C46B32C014694BF2246B42204480BF090F82046BDE81040FFF7E0
:2029C0007BBF00BF2207002010B5FFF783FB012817D008F0DDFBB0B9FFF7A0FD012804462D
:2029E0000DD1FFF701FDFF2805D000F0030010F1FF3418BF0124FFF75BFD204610BDFFF76F
:202A000057FD012010BD094B5B88022BE4D1FFF797FC0028FBD1FFF7E7FCFF28F1D000F02D
:202A2000030010F1FF3018BF012010BD900600202DE9F0434F4E83B080460F46356808F01F
:202A4000A7FB30B14C4B5B88022B02D10020FFF795FB08F0F1FA494C241A03E008F0ECFA5C
:202A6000C44208D52B79022BF8D0032B06D0002003B0BDE8F0832B79032BF8D135683D4A2C
:202A80002B7A032B07D995F808905FFA89F9A9F10804BC4207DD2B680020136028712872A2
:202AA00003B0BDE8F083404605F1090122460BF013F809F1030209F10509AB5C55F80900F3
:202AC0002F4F01903B70AB5CDDF804802D4D2E4A03F07F03B8F1404F2B70D2F800900BD964
:202AE00008F0AAFA294B1B68C3F17E4303F57203C34248BF09F1FF39DFF89CE06FF4BF723C
:202B0000DEF800E012EB08024FF0FF334FF0000043F10003B2EB0E0263EBEE7312EB0008B0
:202B200043EB0909DFF874E04FEA092143F60952002341EA18614FEA0820CEE900890AF0D1
:202B4000C1FC134B134A1B7810603BB1336800221968204631601A721A7189E7397804207D
:202B600049B289B207F0A0F82978032007F09CF8ECE700BF8806002090060020FAFEFFFF55
:202B8000B5240020B62400200C0400208C060020B424002054060020F01C00209802002008
:202BA00010B508F0F5FA78B10C4B5B88022B0BD10020FFF7E3FABDE8104009484FF48731C9
:202BC000084A002301F080B8FFF7A8FC0128F2D10020FFF7D3FAFFF76BFCECE79006002008
:202BE00060060020A12B00002DE9F84F364F3748FFF70EF808F080FC3846002190220BF066
:202C000045F80021902232480BF040F8002190223048314C0BF03AF8002190222F480BF0BD
:202C200035F82F4E2F4B002529462046802242F6010B1F60376075600BF028F842F2020054
:202C40000722022363762276274BB4F81880274FFF2101224FF06F0C4FF0A60E4FF0190A37
:202C60004FF0B9092661A4F800B084F80EA084F80F90676184F81BC084F81CE0A1766273B8
:202C800084F83720A3F8028019711880FFF746FC0128044603D02C462046BDE8F88F144844
:202CA00008F0D4FC2046FFF769FA124A2B4612484FF4873101F008F82946104801F0A2F927
:202CC0002046BDE8F88F00BF10040020A4000020A00400203005002090060020C0050020F7
:202CE0005806002088060020800600201007002044E00000A12B000060060020E401002050
:202D000008B500F08BF880B208BD00BF00F010B938B50C4D04202B685B6998472B680420BD
:202D20005B6B984701280446064BF7D11B6840F20140DB699847044B044A1C6013689B0713
:202D4000FCD538BDB80100102820086028200840034B1B68002B14BF01200220704700BF1C
:202D6000D8070020F8B503880446002B2ED0B3F5847F05D1184B1B788B4205D00120F8BDBA
:202D8000002303800320F8BD144D2B6873B1144B144A1B6812685B6802201746984700269C
:202DA000301847F100012B6898472E600E4B40F201401B689B6A98470C4B01210C4A196017
:202DC00013689B07FCD50B48FEF728FF4FF4847323800120F8BD00BF8A020020D807002079
:202DE000CC01001004800240B80100102820086028200840E800002008B5064B04201B686A
:202E00005B6B9847012803BF034B1868C0F34000002008BDB80100103C20084070B5274B78
:202E20001B689BB1264C0023224612F8011B29B90133042BF9D10020014670BD214A00256D
:202E400002EBC302E55492E8030070BDFFF7D4FF00282FD01C4A1D4B1268134073B91C4AC0
:202E600001211346116018680028FCD102464FF4807106F019FB174B01221A6006F00CFB6F
:202E80000646114A1368DB07FCD5134B134A1B6814685B680220984723460022141843F1F4
:202EA000000516B12046294670BD06F0F9FA2046294670BDFFF72CFFCCE700BFD8070020C7
:202EC000DC070020A00200200880024001000080F09F0240A8025042CC0100100480024032
:202EE00038B50E4D00240E4A2C6013680D4923F00103096813604B69312098472046224604
:202F00004FF4807106F0D0FA0122074B2A6019782246BDE83840054801F048B8A80250422E
:202F20000C800240B00100108A020020FC00002010B5074C2378802B00D010BD00F0B4FF9C
:202F4000207000210348BDE8104001F05BB800BF8A020020FC0000200AB90020704708B59E
:202F600008461146FEF73AFB002008BD0FB400B583B004AB53F8041B04481A46019300F0A9
:202F80004DF803B05DF804EB04B070470C01002038B51546044643680068934298BF03F198
:202FA000FF352A460AF098FD94E80C002A445D1B84E82400002038BD10B5084C84B08DE809
:202FC0000300114602A81A460294CDF80CD000F025F8009B00221A7004B010BD912F0000C1
:202FE000102970B50C46054602D80AE0102C0BD92B686868084910229847103C0028F5D0F4
:2030000070BD08460029FBD022462B6868680249BDE87040184700BFE8E000002DE9F04F9B
:2030200082460F468FB007924FF0000B3B78002B00F0E880252B08BF3E461BD03C4602E031
:20304000252B04D014466378621C002BF8D1974216460CD0D51B39462A46DAF80030DAF8E1
:2030600004009847002840F079826378AB44002B00F0C88073780136002B00F0C38019460E
:203080000025A1F12003102B1BD8DFE803F0171A1A141A1A1A1A1A1A1A111A0E1A1A0900E3
:2030A00045F0100516F8011FEBE745F00105F9E745F00605F6E745F00805F3E745F0020536
:2030C000F0E7A1F13102082A0B46374600F2DC80A1F13002092A4FF000040AD804EB840473
:2030E00003EB440417F8013F303CA3F13002092AF4D92E2B00F0D1804FF0FF366C2B00F084
:203100003D81682B00F04281782B00F28180DFE813F079007F007F007F007F007F007F00D8
:203120007F007F007F007F007F007F007F007F007F007F007F007F007F007F007F007F009F
:203140007F007F007F007F007F007F007F007F007F007F007F007F007F007F00BE027F003E
:203160007F007F007F007F007F007F007F007F007F007F007F007F007F007F007F007F005F
:203180007F007F007F007F007F007F007F007F007F007F00BB027F007F007F00B802B5028E
:2031A000B2027F007F007F007F007F007F007F007F007F007F007F007F007F007F007F00EA
:2031C0007F00AF027F007F007F007F007F007F007F007F00AC027F00A902A602A302A00200
:2031E0009D027F00A6027F007F007F007F009A0297027D007F007F0091027F008E027F003C
:203200007F00940258460FB0BDE8F08F45F4407505F4E063B3F5806F07F1010700F0CE8019
:203220004FD9B3F5C06F00F0A581B3F5E06F00F09A81B3F5A06F7FF4F9AE079B012C1A6855
:2032400003F1040307938CBF04F1FF340024EB078DF8202000F1D08150462146FFF7C0FE98
:20326000002840F07B81DAF80030DAF8040008A901229847002840F071810BF1010C0CEB25
:20328000040505EB040BD1E62A2900F08C800B462E2B4FF000047FF42FAF7B78791CA3F1C6
:2032A0003002092A7AD80F46002606EB860603EB460617F8013F303EA3F13002092AF4D9A2
:2032C0001CE7B3F5807F00F0B080B3F5407F7FF4ADAE079BC34A1968C34815F4804F03F1E8
:2032E000040308BF9046079318BF80460A460023002900F094810DF133094846110941EA45
:2033000003714FEA131E02F00F0673460A4618F8061000F8011D52EA0301EFD1B9EB0006D9
:20332000034600F07E810336B4424FF030024FF078014FF0230300F8022C8CBFA41B002444
:20334000EA0700F8011C00F8033CA0F1030800F1A18150462146FFF743FE002840F0FE8077
:203360004146DAF80030DAF8040032469847002840F0F4805E4406EB040B57E67B786C2B62
:2033800000F00481013745F06005BDE67B78682B00F09381013745F04005B5E62A2B00F027
:2033A00091810F46A8E6079B771C1C680433002C0793B8BF45F0010573789AE6079BD3F8D8
:2033C000009004330793B9F1000F00F08F8299F80030002B00F0B2824B4613F8012F002ACC
:2033E000FBD1C9EB0308002E02DBB04528BFB04644458CBFC8EB04040024E90700F1E08071
:2034000050462146FFF7ECFD002840F0A7804946DAF80030DAF8040042469847002840F02B
:203420009D80D84408EB040B00E6002EABBF25F0100501230196019315F40053049305F072
:20344000E00300F0A880402B00F07F8200F24181002B00F02D82202B40F05A82079B1A1D67
:20346000079293F90020D317002A73F10001C0F22A82CDE902230023059305F4C053B3F5E6
:20348000805F00F09281B3F5C05F00F0BF81B3F5006F00F067810DF136064FF00008019B47
:2034A00041F20802984541F6080303EA050380F0338101999342C8EB0101019100F046812A
:2034C00041F6080201999342414400F031814FF000094A46049B73B1059B002B40F083817B
:2034E00005F00603022B00F01B824048062B04BF02464FF0010909EB01039C428CBFE41AE8
:20350000002415F00103049306D1E80640F1F681019B2344049C0193B9F1000F07D011465C
:20352000DAF80030DAF804004A469847B0B9019B08EB0B05102B40F291819B4603E0BBF14D
:20354000100F40F28E81DAF80030DAF80400284910229847ABF1100B0028F0D04FF0FF30A4
:203560000FB0BDE8F08F079B1A680433C2F800B007935BE5DAF80030DAF804001D49012268
:2035800098470028EAD10BF1010B4FE5BB7845F080050237B8E5402B00F0C68100F2A980AD
:2035A000002B00F09881202B40F02181079B049A05921A1D07921A780023CDE902235CE740
:2035C0004946DAF80030DAF80400424698470028C4D150462146D844FFF702FD00283FF4F7
:2035E00021AFBBE7B4E00000A0E00000D8E00000F8E00000E4E00000DAF80030DAF8040019
:2036000008A9012298470028A8D1504621460BF10105FFF7E5FC00283FF433AE9EE70DF1C1
:203620003303302203F8012C581E04267CE645F41065EDE545F48065EAE545F4C855E7E549
:2036400045F48855E4E545F4E065E1E545F48135DEE545F40075DBE545F40245D8E545F4B1
:203660002455D5E545F4A065D2E545F4C135CFE545F4B245CCE545F4A135C9E545F484459F
:20368000C6E545F44245C3E545F4E135C0E545F4C065BDE54146DAF80030DAF8040032464C
:2036A000984700287FF45AAF504621465E44FFF797FC00283FF45FAE50E7BB7845F0200533
:2036C000023721E5079ABB78111D07911668023714E5602B00F0EC80802B40F01981079B63
:2036E000073323F0070303F108020792D3E90023BAE6602B00F0EF80802B78D1049B059348
:20370000079B073323F0070303F108020792D3E90023CDE90223B0E6934200F0EC80002276
:20372000019241F608020199934241447FF4CFAEDDE9022313433FF4CAAE874B15F4804F3B
:20374000864A4FF0020908BF1A46C3E60B46002908BF01230193019B4FF000094A4603EB24
:203760000801B7E6DDE9028942464B46134300F0E7800DF136031E460693404649460A2217
:20378000002309F09FFE30324046494606F8012D00230A2209F096FE8046894658EA09030E
:2037A000EBD1069BC6EB030879E6DDE90223134300F0C6800DF1360306939E46DDE902237B
:2037C000D00840EA4370DE0802F007013346024630310EF8011D52EA0301F1D1069B7646AF
:2037E000CEEB03085BE64FF001095D4A83E605F4C053002200200021B3F5805F0592CDE928
:203800000201D2D0B3F5C05F40F08580DDE90201544A554B15F4804F14BF90469846024659
:203820000B46134300F08C800DF1360306931E4602460B46110941EA03714FEA131E02F003
:203840000F0073460A4618F8001006F8011D52EA0301EFD1069BC6EB030820E6019B9B4634
:203860004BB15A46DAF80030DAF804003F49984700287FF473AE31464246DAF80030DAF8DE
:2038800004004D44984700287FF468AE019B2B441E46049B002B3FF46EAD50462146FFF789
:2038A0009FFB00287FF45AAE06EB040BFFF7BEBB079B1A6804330793002A4FEAE27373F14B
:2038C0000001BFF6D6AD524263EB4303CDE9022301230593D1E5049A079B05921A680021C0
:2038E000104604330793CDE90201C6E5DFF884904FF0060877E5012301932CE750462146E1
:203900000292FFF76DFB029A00283FF405AE25E600220023ADE5DDF814800DF13606BEE5E3
:20392000134A4FF00109E6E5079B049A05921A1D07921A880023CDE902239EE5984652E537
:203940004FF000080DF13606A9E5079B1A1D0792B3F90020D31787E5CCE00000C8E0000070
:20396000D0E00000A0E00000B4E00000F8E00000D4E00000DCE0000010B50446006830B1E3
:20398000002100F03FFB54F8040F0028F8D110BD704700BF10B50E4C2368B3B1FDF74CFCFF
:2039A00022685168136892681944091A4AB192E8180023441B1A9268994228BF1946002A61
:2039C000F5D1044B0844186010BD024A136010BDE0070020E40700202DE9F0410388054686
:2039E0007BB1592B08D1872912D0822920D059232B800120BDE8F081002303800320BDE845
:203A0000F081254A0120136059232B80BDE8F081214F3B68002BEAD0D9688A4203D024E019
:203A2000D9688A4220D19B68002BF9D13B60DEE7194F4FF000083C68002CD8D0002604E0FF
:203A4000A3682646002BD2D01C46204600F046FB0028F5D0E0688821224600F0A7FA78B129
:203A60000E4800F0EFFAEBE73B6099680029BED0C86882420BBF89680B4699608968F5E72C
:203A8000E060A3682EB1B360C4F80880FFF782FFD1E73B60F8E700BFE00700201401002001
:203AA00010B50446104800F0CDFA1049E3680A684BB142B194420FD0134601E09C420BD03B
:203AC0009B68002BFAD10A4BA2601B680C60E360BDE81040FFF75EBF054B1B68E360BDE8A1
:203AE0001040FFF757BF00BF14010020E0070020EC070020014800F0A5BA00BF14010020D0
:203B000010B5044600F0D6FA2046BDE81040FFF7C7BF00BF10B5044600F0D4FA2046BDE868
:203B20001040FFF7BDBF00BF10B5044600F0D0FA2046BDE81040FFF7B3BF00BFC068B0FAE7
:203B400080F04009704700BF05C81044704700BF024B1868003018BF01207047E0070020EC
:203B6000024B186808B1024B18687047E0070020E407002010B5114B04461A68904218D082
:203B80005AB19368834208BF13460AD02BB19A68A24206D01346002BF9D10023A360E36011
:203BA00010BDA2689A60FFF7F5FE0023A360E36010BD82681A60FFF7EDFEEEE7E0070020F4
:203BC000F0B5038883B005465BB14A2B04D188291BD0012003B0F0BD00230380032003B048
:203BE000F0BD194800F0F4FA044630B1201DA168FFF786FF2468002CF8D1144B01221A7060
:203C00004A2301202B8003B0F0BD0F48019200F0DFFA04460028F3D0019A031D9A4205D0B7
:203C20002468231D002CEBD09A42F9D10648214600F014FB064E6269A369376832600BB15F
:203C4000E06998473760DBE7E8070020B7240020EC07002010B5064B002406481C7000F0C2
:203C6000B3FA2146BDE81040034800F0CBB900BFB7240020E80700202401002070B50446FF
:203C80000D48049D0078A261E361656130B9A1600A482146BDE8704000F09CBA084D094BC2
:203CA0002E68201D2B60FFF72BFF2E602146BDE87040024800F08EBAB7240020E8070020B0
:203CC000EC0700202401002010B5044C82B024680094FFF7D3FF02B010BD00BFEC0700200C
:203CE00070B5094B04461B783BB1084D084B2E6804302B60FFF70EFF2E602146BDE8704038
:203D0000044800F067BA00BFB7240020EC07002024010020E807002070B5094B04461B78CF
:203D20003BB1084D084B2E6804302B60FFF7FCFE2E602146BDE87040044800F04BBA00BF60
:203D4000B7240020EC07002024010020E807002010B50A4B04461B783BB9C3600361214628
:203D6000BDE81040064800F079BA0430FFF702FF2146BDE81040024800F070BAB7240020F7
:203D8000E80700202DE9F843DFF8A480274DD8F800702E68874247D077B33B4601E0002BE7
:203DA0003BD01B689842FAD133B3837B8946044623B3002383736FB1BC424FF0870106D029
:203DC000BB7BDB0703D53846224600F033F83F68002FF1D1A3683BB14C4505D02C6004F17C
:203DE0000C00832100229847D8F80000844208D12368C8F800302E60BDE8F8833846844236
:203E0000F6D00028F7D00368A34208D0002BF2D01A68A24204D01346F8E7BDE8F8830346FD
:203E200022681A602E60E7E73B46BDE7EC070020F007002070B586687EB104460A480223D0
:203E40000460A37304F10C000D46B0470238012804D9832D02D00123A37370BD20462146A7
:203E6000BDE87040FFF78EBFEC07002070B50C4A0C4B146800251D7084B1012601E02468CE
:203E800064B1E37B002BFAD0A673E573204682210022FFF7CFFF2468002CF2D170BD00BFF3
:203EA000F0070020BA240020024B1878421C1A70704700BFBB24002070B407480749084A9E
:203EC0000023084D084C8A2603700B6013602E70237070BC704700BFB9240020F00700202E
:203EE000EC070020BB240020B82400202DE9F041244D2B780BB1FFF7B9FF234E3378D3B14F
:203F0000DFF890E0214F9EF80020013B02EB420189007C180132A068DBB202F01F0233702D
:203F20008EF800207F5CD4F8048098B1812F06D0827BD20705D428781844BDE8F0810123FC
:203F4000837339464246FFF775FF337828781844BDE8F0810E4A146834B9ECE7A37BD907AB
:203F60000AD42468002CF0D02B78002BF6D0FFF77DFFA37BD907F4D5204639464246FFF7BB
:203F800059FFEEE7BA240020B9240020F4070020F0070020B8240020024A034B10781B7816
:203FA00018447047B9240020BA240020F0B40C4D2C78202C11D00B4B0B4E1B78671C2344F9
:203FC00003F01F0303EB43039B00F418A06062602F70F1540020F0BC70470120F0BC704744
:203FE000B9240020B8240020F407002038B5837B034CDB07256801D5FFF71CFF256038BDA3
:20400000EC07002070B404460D4D2868A04206D038B1034600E023B11B689C42FBD170BC3E
:204020007047002CFBD0012600232060A673A3810A4620462C60812170BCFFF7D7BF00BF70
:20404000F007002038B1837B013B012B03D8024A01231370C3737047BA24002006F0E6BFA6
:2040600038B5094C049D226822B180E82A002060002038BD024680E82A000846226006F039
:20408000D7FF002038BD00BF7409002010B5084C206858B10022436881682260984723688D
:2040A00023B1BDE81040186806F0C2BF10BD00BF7409002010B541600446FDF7BDF820603E
:2040C00010BD00BF90E80C0013440360704700BF10B50446FDF7B0F8206010BD10B5044699
:2040E000FDF7AAF823686268C3F10103184482422CBF0020012010BDF8B504880546672CED
:204100000CD0792C1BD01CB1002303800320F8BDFFF7CAFE1E4A1F4B10701C601D4C264687
:2041200004E00A2813D023687E2B2BDD1A4800F02FF9431CF5D167232B800120F8BD8529F2
:2041400001D00120F8BD134C00232360E6E7114C124F23680E49002603F1010E3A4609781C
:204160003046FE54C4F800E0FFF720FF0C4B324618688521FFF71AFF0028E5D179232B809D
:204180000120F8BD05495A1CC8543260CEE700BF812F0020800A0020F8090020000A00209E
:2041A000EC07002008B505480549802200F0E8F8BDE8084003480021FFF724BFF8090020CF
:2041C000780900203401002000230360704700BF00687047026842B1914203D11BE09942F4
:2041E0000ED01A461368002BF9D100230B6002680AB90EE01A461368002BFBD1116070476E
:204200000B68136000230B6000230B600268002AF1D1016070470B680360F3E710B404684E
:204220004CB1A14217D0224602E0994208D01A461368002BF9D10C6001605DF8044B7047C2
:204240000C460B6813600023236004680C6001605DF8044B70470B680360F4E7026842B1DE
:204260008A4203D10BE0994204D01A461368002BF9D170471968116000221A6070471346DF
:2042800012680260F8E700BF03682BB100201B680130002BFBD170471846704700B10068AD
:2042A000704700BF10B5044600216288406809F0EDFC23886288A06802FB03F2BDE8104060
:2042C000002109F0E3BC00BF30B44588BDB141680B7863B14A1C002303E014781146013285
:2042E0002CB10133AB42F8D1002030BC704701220A700288806830BC03FB02007047284614
:20430000F3E700BFF0B44588074682686DB18A420ED006880023324402E0914209D0224677
:204320000133AB4202EB0604F7D1FF20F0BC704700237A68D05C0028F8D00138D0547A68BB
:20434000F0BCD05C704700BF83688B4208D84288008800FB023081422CBF00200120704752
:2043600000207047418849B143680020194413F8012B02B901308B42F9D170470846704705
:204380000023013A0160027143718371704700BF0346807959791A79091A114208D010B414
:2043A000411C1C680A40205C9A715DF8044B70474FF0FF30704700BF013A0A44914230B4CC
:2043C00014D20C4625786378023403EB05239BB2184480B2834284BF013080B2A242F1D8EE
:2043E000CB43134423F0010302331944914201D030BC70470B7830BC1B02184480B2834289
:2044000084BF013080B2704730B5134B134D1C782B796A79C4EB0323134483B09BB2ADF830
:204420000630BDF8063005F108011844202280B2FFF7C2FFBDF8062004F12801294492B22B
:20444000FFF7BAFF18B94FF6FF7003B030BD40BA80B203B030BD00BFBC2400200C250020AC
:20446000022318462DE9F0412C4D2D4E2A782D4F2832B1184978C90001F1070E704549DCD2
:204480008118745CDFF89880012C31440AD01DD3632C0DD13B70234C03F0B0FED0B9012086
:2044A000BDE8F0814C7802340319DBB21846E5E704F0C004802C1AD0C02C25D0402C1FD08F
:2044C0004B7802330344DBB21846D7E7431CDBB21846D3E72B78227828331344984498F895
:2044E00001300020134402332370BDE8F0813B7002440221042007F0DDF90220BDE8F081F9
:204500003B700120BDE8F08198F818103B70FF29EED1C4E73B700020BDE8F081BC240020E3
:204520000C250020BE24002070B4C278134C0A44D2B2E27083780E0A3344DBB2A370457860
:204540009E4265700078207003D90135EDB265708DB1C9B28A420CDA0133DBB2A370074A88
:204560003BB953780133DBB2537013B913780133137070BC704701302070EAE70025002030
:2045800010B5084C014620681430FFF7CDFF064A2368507814789178D2781C75587599753F
:2045A000DA7510BD04290020002500203A20FFF72BBF00BF08B507F0B5FC07F065FA01F0A8
:2045C000F3F80F4B002103F1280223F8021F9342FBD10C4B002103F5F07283F82510303395
:2045E0009342FAD1084A094B4FF48061118003F5A07100221A8220338B42FBD108BD00BF89
:20460000EE2A002008290020A22400201C2B00202DE9F041134E347814B3134F04F1270328
:204620003D88AB4204DB00233B803370BDE8F081DFF83880A5F12802121B04F128012C1B71
:204640004144A4B208F1280009F0BCFAA4F12803191200223C8088F8053088F804103270FB
:20466000BDE8F081BC240020F82400200C250020074A002332F8021F814203D00133142BCF
:20468000F8D17047034A002122F81310704700BFEE2A0020F02A00202DE9F04FC44F042873
:2046A00087B03D6829D0C34ADFF828B3DFF828C30328CBF80020CCF800202CD0022800F09C
:2046C0009880052800F0598112F83C3CA2F13C0403F0F003602B00F0E280DFF80093B64E45
:2046E000B64BDFF8FCA2002232801A708AF8002089F8002007B0BDE8F08FDFF8E092AE4E83
:20470000DFF8E082B8F80030002B40F06D81AB4BDFF8CCA2E7E795F8251001F00F0103293F
:2047200000F0F1800229D8D1A2F13C04DFF8AC92A14E04F1180840234FF0020E042700205B
:20474000602284F8351084F83CE084F83D7084F83E0084F83F30338084F834202B7D984F9E
:2047600084F830306B7D84F83130AB7D84F83230EB7D84F833302B7E84F82C306B7E84F865
:204780002D30AB7E84F82E30EB7E84F82F302B8A23856B8A638595E80F0088E80F0007F138
:2047A000080007F1180107F025FB95F8253003F0100303F0FF02002B40F05581402387F8DA
:2047C000362087F8373033887E4A283B1579062100221E12084663712671E571A17184F813
:2047E0003B2084F83A202287FFF70EFEC04320872AE17548704EC278704B0132DFF8E48149
:204800000021D2B2C27031801970A8F8001062B982780132D2B282703AB942780132D2B2B5
:20482000427012B902780132027095F8251001F0FD02052A00F09380002900F09980AA8B91
:20484000002A00F0208395F82620501E85F82600002A40F08D8095F82720082A00F05E8379
:20486000481E012840F25783042A9CBF0320904001F00F0194BFC0B2302001324C1E85F8F1
:20488000272085F82600072C72D8DFE814F00F01000116010601710006017100060123792B
:2048A000454E61791B0230885D18854200F3E180207A28310B44FF28338000F0DA80434D30
:2048C0003E4BDFF81CA1A0790021363A2A6019708AF80010002840F01B8101220193CDF8FC
:2048E00000C08AF80020FFF7BBFD0128DDF800C0019B00F06E81C0F00181022840F008815A
:20490000DFF8D890A5E0AB8B002B7FF4E6AEDFF8CC900823CDF800C089F80030264E02F071
:20492000A7F9DFF8C080DDF800C099F8002002F0200303F0FF01002B00F0B682204C002390
:20494000142285F82530A8F8003084F8352004F118083C233380502384F83430FEE695F8C3
:2049600026200132D2B2782A85F8262000F08780DFF86890DFF868A0B5E6154B1B681B8A0D
:20498000002B3FF4AAAEDFF85C800B4EDFF84C9000230C3A0821CBF80020CCF80020A8F8A9
:2049A00000303B60338089F8001002F061F9A9E60429002048250020F8240020BC240020F7
:2049C0000C250020142E0020840A0020F8280020FC28002000290020FC240020F42800202D
:2049E000BD240020182B0020AC4AAD4C126803F1080149BA002092F814E0A185E085118A26
:204A0000303321859BB2508AA3F128010D12112784F807E02571608533806171A77104F1E2
:204A200018050FCA85E80F00294604F1080007F0E1F99C4B04F13C0238461A60FFF7E4FCDF
:204A4000C04380B258B1E08500236022227063706380002389F8003007B0BDE8F08F4FF6D2
:204A6000FF73E385F0E7002387F8373087F83630A9E6DFF838928C4BDFF834A233E60022A8
:204A800085F82520DFF82492DFF824A22BE6844CDFF8189204F118084DE6814CDFF80C923E
:204AA00004F11808112384F8353052E77C4CDFF8FC9104F1180812213DE6DFF8F09104237D
:204AC000CDF800C089F8003002F0D2F8B8F80030DDF800C0DCF80020CBF80020002B00F07D
:204AE000F881AB8B002B00F0F4816D4C18223C33338084F8352004EB02082CE71A7802F100
:204B0000280121444878083202EBC00229601A70DFF8A08101934046CDF800C007F04AF87B
:204B2000DDF800C0019B002800F02A822A68DFF8809110783C2800F29E81DFE810F09001B1
:204B40009C019C019C019C019C0112019C019C019C019C019C019C019C019C019C019C010F
:204B6000BD009C019C019C019C019C019C019C019C019C019C019C019C019C019C019C0145
:204B80009C019C019C019C019C019C019C019C019C019C018D004A009C019C019C019C01A8
:204BA0009C019C019C019C019C019C019C019C019C016A004A004D000193CDF800C0FFF760
:204BC00023FC4FF6FF729042DDF800C0019B00F08080DFF8D89086E59AF80000810740F118
:204BE000AE81410600F1478140F0400089F800000193CDF800C0FFF733FC0128DDF800C099
:204C0000019BE6D0C0F0A08102283FF479AE2A688FE73A200093FFF7F7FB4FF6FF72904288
:204C2000009BD6D11A7800932832A05C01F0B8FE009B1D4D1A782832A1184978A05C06F0B3
:204C400015FE0128009B00F0C1823288DFF85C90002A3FF448ADFCE69AF8000000F0040E05
:204C60000EF0FF010091BEF1000F40F0048140F00402114693F800E089F800100EF1280280
:204C80002244D078002840F0A58250780EF1080E05490EEBC00008702A604AE7FC2800208C
:204CA0000C25002000290020BC240020F4280020BD240020242500208DE80810FFF7A8FC8D
:204CC0009DE80810E28D1120A071A54D002A7FF473AFB5F82A80B8F1000F3FF47AAFDFF893
:204CE0009492A04B9F4DC9F80030248D05F5A07A05E020355545C9F8005000F0A0812B8A56
:204D0000002BF6D09845F4D16B8A974810220BB1A342EED12B682BB96B681BB9AB680BB9A5
:204D2000EB6843B12946CDF800C008F0A3FEDDF800C00028DDD133888C49DFF83C92DFF828
:204D400030820022303B02203380CBF80010CCF8001089F80000A8F800203A6001F088FF45
:204D6000D0E48DE80810FFF753FC06221046A271FFF74AFB9DE808104FF6FF7290427849FB
:204D80007FF427AF4A8D0092002A3FF422AF0A8D0192002A3FF41DAFDFF8E091CDF810A023
:204DA00009F5F075A24603934C4603E03034AC4200F04B8194F825300293002BF6D0228A7C
:204DC000009B9A42F2D1628A019B9A42EED1664821461022CDF814C008F04CFEDDF814C0AB
:204DE0000028E3D122460094544694F835E0DFF888911EF0040F3A601546039BDDF810A077
:204E000089F80000564A40F06A8392F8341032880909283AA2EB8101029A89B202F00F026F
:204E2000022A318000F06C83012A00F0638319B91EF0030F00F06E820098A18D808A814250
:204E400000F061821EF0020F05D0012A3FF433AE022A00F08182102384F8353079E59AF829
:204E600000000193C307CDF800C004D440F0010089F80000BFE6121B0420012106F01AFDA0
:204E8000DFF8F490E5E501F00F0103297FF470ADDFF8E4900823CDF800C089F8003001F093
:204EA000E7FEDDF800C040E502F0100303F0FF00EBB12B4C01200422112385F82710A8F87A
:204EC0000010A88385F8252004F1180884F835303FE599F8003098077FF519AC204C102284
:204EE0003C2384F8352004F11808338033E5B8F800301F495BB1D40740F19A80A883EA8B88
:204F0000934288BFA8F80020B8F80030AB83002285F82720DEE5052A7FF4A6AC0023DFF810
:204F2000589085F825300E4C802389F8003001F09FFE142384F8353004F1180809E540F030
:204F4000020089F8000053E6187800F12802224492F801E0083000EBCE002A601870E8E549
:204F60000C2500201C2B0020142500203C250020182B0020FC280020F4280020082900206B
:204F800040460193CDF800C006F0CAFEDDF800C0019B00287FF4CAAD217EA8F11808FF29F1
:204FA00000F0D78048F2FE00B8F81820824200F0D080B8F80820824200F0D180AAB9B8F896
:204FC0000A2092B9B8F80C207AB9B8F80E2062B9B8F810204AB9618A39B9B8F8141021B9E6
:204FE000B8F81620002A3FF4F4AD218BA44A81B9518B71B9918B61B9D18B51B9118C41B9C0
:20500000518C31B9918C21B9D28CB2F5807F3FF4E0AD3388B3F5A06F00F29982E379984A51
:20502000012B40F28B82013BD371DFF86C9210E5AA8B002A3FF463AF13460A8067E70120C5
:205040000421002206F036FC5AE4544694F83520039B02F03F02022ADDF810A053D0DFF8AC
:20506000389294F83510864A48073FF53CAB92F82F0092F833C092F832A092F82E1092F877
:205080002D3092F831E092F82C5092F830700130C0B24FF0140B82F82FC082F82EA04FF0F7
:2050A0003C0C4FF0500A82F8330082F8321082F8313082F82DE082F8305082F82C7082F8BA
:2050C00035B0A6F800C082F834A060B90131C9B282F8321039B90133DBB282F8313013B963
:2050E0006B1C82F83030228D638D664D6285238595E80F0088E80F00284605F1100106F0F8
:2051000079FEFFF760BB6049002201E0142AA6D031F81200009D0132A842F7D10025294656
:205120005A4A05E001310A2902F1300200F0D38092F82500002856D00728F3D1002D00F00C
:20514000CD8092F826E095F82600864588BF1546E8E748F2FE02208990427FF43AAD2089CB
:20516000474A78B9508968B9908958B9D08948B9108A38B9508A28B9908A18B9D28A002A38
:205180003FF427AD208B3E4A80B9508B70B9908B60B9D08B50B9108C40B9508C30B9908C8A
:2051A00020B9D28CB2F5807F3FF413ADFF293FF410AD3748009306F0DFFC0246002800F0C4
:2051C0008280DFF8D490009BFFF78DBA002232802A703AE500990EF12A02042006F06AFBEA
:2051E000DFF8B49035E4302505FB01953D60BDF80070284A2F82BDF8047092F800B0507880
:2052000091786F82D27894F82F701E4B94F82EC094F82C9094F82DA04FF0010E009785F839
:2052200018B003276876A976EA764FF0000B0FCB85E80F00042385F825E0A5F81CE085F8C0
:2052400016C085F8149085F815A085F8267085F8247085F822B085F823309DF80030704667
:20526000EB7585F827B0FFF78BF994F8342002F0F003502B23D91209053A5B46920015E042
:205280000C25002014250020F02A00200829002024250020840A0020F428002002281FD06D
:2052A00097F83D1059B10B449A4208DDE11891F83C000F4618B10128F0D10133F4E7DFF84C
:2052C0001C93FFF7F8BB0120022106F0F3FADFF80C93FFF7BEBB002D88D17AE4154621E723
:2052E00091F83D000428DBD191F83E2091F83F30DFF8E89243EA0223402B28BF4023EB836B
:205300002B84FFF7D8BBB349C88D0099C98A88427FF498AD1EF0100F02D0009A918BF9B92F
:20532000009A92F825E00EF00F02013A072A3FF6DAA901A151F822F06F5600000D550000ED
:20534000815500009F5400006B5400004F540000574E00002B5400004EF00201FFF7EBB923
:2053600002F118000393CDF804C0FFF7DDF89A4A94F830001378974983420293DDF804C03A
:20538000039BCDD1507891F831E003907045C7D191F8320092F802E08645C1D1D27891F838
:2053A000331001928A42BBD10098014690F827209DF8080004929DF80C2008764A769DF84A
:2053C000042081F81AE0CA76049A12BB91F8260091F8242091F82210121AA2EBD102D2B244
:2053E00011445FFA81FE0099D0B281F822E0010644BF5242D0B2009A92F82320A2EB920242
:205400000244D2B2009802EBDE0180F8241080F8232000994FF0010E91F82400002281F8C8
:20542000260089F800E08A837AE799F800106B4AC9077FF558A90193009B0020102183F8E1
:205440002500117001F014FC019BFFF74CB999F80020D1077FF547A9009C0721002284F8BF
:20546000251084F82620FFF73EB930885C4F002840F0758194F83520D2077FF534A9009FED
:205480000722002387F82630012087F82520FFF777F8102389F8003001F0EAFBDBE4308870
:2054A00018B10193FFF76CF8019B94F8352012F0010259D099F80030DF0750D50098002303
:2054C000072280F8252080F8263083830120FFF757F8102389F8003001F0CAFBBBE4202231
:2054E00085F82500019389F8002001F0C1FB019BFFF7F9B80EF03F0002287FF498AC09E7D7
:205500000EF03F0012287FF492AC03E799F80020D00707D594F835202E4902F03F02122A4E
:2055200000F0BE802022009389F8002001F0A0FB3A68002182F82510009B92E500210A4646
:20554000032006F0B7F9DFF89490FFF782BA022000214FF4A06206F0ADF9FFF7D1B9009A17
:20556000062382F82530B1E799F80010C80740F10681009C0521A28384F82510FFF7B3B87A
:2055800094F83520D1072DD51EF0100F2AD1009A928B002A7FF4A7A83088013080B2FEF775
:2055A000EFFF99F80030318843F0100289F800200A4A11B143F01203137001F059FB009FD8
:2055C000012108220023B98387F8252087F82730FFF768BA0C25002000250020F42800209C
:2055E000F824002092060DD594F83A7094F83B20DBF80010308842EA07221144821ACBF834
:2056000000103280308880B11EF0100F0DD199F80020029342F00202CDF804C089F800202E
:20562000FEF7AEFF029BDDF804C094F8360094F83720009902EB0022098C92B28A4202D8C6
:20564000002A18BF114699F8002000989707C1833FF449A8DFF838810023CDF800C0A8F8CB
:20566000003001F005FBDDF800C0FFF75EB999F80010464ACF072DD5009F3088032440217F
:20568000002387F825401170BB830028E2D04223CDF800C01370FEF773FFDDF800C0D9E741
:2056A00091F8342002F0F00150292CD91109053989000022A01890F83C7086461FB3012FEF
:2056C0004BD0022F0FD09EF83D00E0B102449142F0DC18E094F8352002F03F02022A7FF4AB
:2056E00002A8FFF7E8B990F83D70042FEBD190F83E1090F83F20009842EA0122402A28BF50
:205700004022C283028494F82D700293009B94F82CE05F751F4694F82E1094F82F40032248
:2057200083F814E0997583F825200120DC75CDF804C0DFF85C80FEF723FF0022029B422145
:20574000BA83A8F8002032801A7089F8001001F08FFADDF804C0FFF7E8B80132B7E7019371
:20576000FEF70EFF94F83520019B12F0010F7FF486AE3A88002A7FF46EABFEF7B4BF328857
:20578000002A7FF468ABFEF7AEBF00BFF4280020182B0020030C80B2020A5BBA9BB242EABE
:2057A000002043EA00407047704700BF08B5064801F0F0F8054B00220120FD211870997009
:2057C0005A70DA7008BD00BF49620000040C002070B413780D7A83F002039D42044614D09B
:2057E0000B891BB94B89B3F57F4F2FD01E4A51F8085F13684E68012003F10801A0405E60F3
:205800001D601160C0B270BC7047487A53789842E6D1887A93789842E2D1C87AD378984226
:20582000DED1087B13799842DAD1487B53799842D6D1887B93799842D2D1D379CA7B9A421C
:20584000CED1032303FA04F0C0B2DCE78B89FE2BCCD1054DC9892A68022322F8021B03FAF4
:2058600004F02A60C0B2CEE7900A002010B5114C0220A17904F018FAA379112B0FD0062BFD
:205880000DD03A2B05BF94F8281094F82930002143EA01210120BDE8104004F005BA238D70
:2058A000618D01209942A8BF1946BDE8104004F0FBB900BF0C25002010B5084C2378012BAB
:2058C00001D0002010BD01460822A01C08F0D2F800280CBF2046002010BD00BF040C0020E6
:2058E00008B50146102004F0EDF9044B04489B6800219847BDE80840FBF73EBEE0E1000060
:205900000559000010B50C461146204606F05CFE044B1B6813B19B6820469847024B1C605E
:2059200010BD00BF68110020140C00202DE9F041154D07462A4600239078713230B10133B9
:205940000C2BF9D14FF0FF30BDE8F081C3EBC30403EB04142E19717004F000F9DFF83080AB
:205960000A4A98F800301168C01A2F55B070CC1804F0F4F898F800202146821AF01C08F0A1
:20598000ABF8B078BDE8F081180C0020100C0020C02400202DE9F04F074683B092BB604ED2
:2059A000894636F8063C15469346FF244FF0FF38DFF878A1002B37D1B8F1FF3F4DD0012D86
:2059C00006F1B8062BD1B8F1FF3F23D0B82000FB08F5DFF850810F2008EB0506A6F8129057
:2059E000378204F07BF90146304604F0A3F905F1180040444021FEF75DFB234658B203B0D3
:205A0000BDE8F08F474D00262C46238ABB422CD0B83436B3FF2358B203B0BDE8F08F36F88A
:205A2000063C0125002BC7D03046FEF757FB68B13D4B26F806BCE9B29A7822B11A788A4220
:205A400008BF83F802B071335345F5D1B8F1FF3FB5D136F8063C002BB1D1ECB24FFA84F863
:205A6000ADE7238A0126BB42D2D1638A002BCFD00F20019204F032F90146204604F060F98C
:205A8000019A0028C4D0F4B211462046FFF74EFF0028019A0CDB0028BCDDB82303FB065669
:205AA0002346B28A1044B08258B203B0BDE8F08F4FF0000BDA461A4FDFF870904FF0B80831
:205AC00037F8063CEBB156451BD038460192FEF705FB019AA8B100218E468C465FFA8AF09F
:205AE00008FB00535982104B997831B11978814204BF83F802C00EF1010E71334B45F3D1CD
:205B0000F344B837BAF1000F07D0BBF1000F81D011462046FFF70AFFBDE74FF0010ACFE762
:205B2000AC0A0020940A0020180C0020641100202DE9F04715090F2D07469A4602F00F041F
:205B40003FD00F2C34D0A146A84666195DBB0F2E03DD5CB9E5B9BDE8F08707EB0800C6F1EE
:205B60001002002108F092F8002CF3D0DFF87480C9F11000D8F8006038443146224607F06A
:205B8000ABFF022C26D03444C8F80040BDE8F08738465146BDE8F04706F0A6B9454620268C
:205BA0004FF010094C462A46384607F095FFCEE7A84605F11006002DF2D14FF010094C46F9
:205BC000D4E70F2C4FF01008E8D042464546A146A618E9E70A2DD6D8FF22FE23FA723B73F7
:205BE000D1E700BF900A00202DE9F04F0F2089B0DFF8F482B24D04F071F8002704F036F9C4
:205C000088F800702F7003F095FFAE4E3060042004F052F83368DFF8D4E21C785A7804F0FE
:205C2000F80100B2C029CEF8000042EA042274D0E02963D1297893F8049093F802E0D878BA
:205C4000C2F30A044B1D4A46214640EA0E202B70FFF7A0FEB0F1FF3F83465BD09A4AB82309
:205C600003FB0023B3F814A00123A245009734BF4FF0000A4FF0010A019303F06FFF2B78E4
:205C80008F4D834246D803F069FF2B7898F80080C51A08EBC9098D4AA944B9F57A7F1560B3
:205CA00038D837B1316807EB080019442A4607F013FF002C78D0009B53B183494FFA8BF3DD
:205CC000B82000FB031305EB080292B29A821A84BAF1000F40F00E81019BDBB97C4B4544EA
:205CE0001D807C4C236823B1FFF7C0FD23685B68984700F069FE09B0BDE8F08FBB46009734
:205D00003C46754F2A78995C01F0E000602854D041291DD009B0BDE8F08F297893F802E0E7
:205D2000D878C2F30A040B1D3A46214640EA0E202B70FFF72FFEB0F1FF3F8346EAD0624F18
:205D4000B82303FB00770122336822370092D9E73946501CC0B2034403F12000D3F800A067
:205D6000D3F80490D3F808C0D3F80CE010338342C1F800A0C1F80490C1F808C0C1F80CE0A6
:205D800001F11001EAD118685B6808604B6098F800302932283388F80030009B4FF0000AE5
:205DA0002A70D146019368E7019B002B96D0BAF1000FAFD0464B1C8093E7981890F8019079
:205DC0000232DFF82CA14FFA89FC1344BCF1000FCAF80030BCBF0133CAF80030CA064AD588
:205DE00001F0080303F0FF0E002B40F0B081DAF800301A461B78C3F3830343F060033B70A9
:205E000012F8010BA7F802E0830803F0300343EA8013CAF800207B7001F0040303F0FF02C1
:205E2000019233B9DAF8003013F8012BBA71CAF8003011F0030100F09780284B5B5CFB71EB
:205E400019F0400FC9F3011300F06281BCF1000FC0F299810022002B00F08E80204908788B
:205E6000012800F0B6811F4A00239A4699461360009B019301E70B0700F16F81DAF8003008
:205E80001A4633F8010F9B78A7F80100FB70787812F804EB00F00F00019202464FEA9E03AC
:205EA00003F0300040EA8E10104303F00F03019A43F06003CAF800203B707870ACE700BFA7
:205EC000C0240020100C0020940A002064110020F8240020681100200C25002038E10000F0
:205EE000040C0020880A0020BF2400208C0A0020900A00204FFA8BF7B82101FB07F1DFF8DE
:205F000034A3C2480AEB010319461A8C9C822231BF4E07F0E1FDBD4B06F24C5916F8012C6F
:205F200022B116F8031C8F4200F03B8171364E45F4D100221046B823FFB203FB07AAB54B32
:205F40005FFA8BFCAAF8122003F24C519A781AB11A78624508BF987071338B42F6D1019B42
:205F6000002B3FF4BBAE25E7DAF8003013F8012BFA71CAF8003063E707F10802049205933E
:205F8000A54A0F20D25CCDF80CC0029203F0A6FE05990346029A0498FFF7CAFDDDF80CC07C
:205FA00009F0080303F0FF0209F0030E002B36D019F0040F11D1994A0EF1FF331288012BD6
:205FC000ADF81C2040F21881954B07F1180013F80E2007A90023FFF7ABFD98F8002002F1D8
:205FE000280388F80030019B002B3BD1DAF800303268DFF844929B1A2B70002C00F09A8024
:20600000A4F128031A127B713A71BB79112B00F0C080009B4FF0000AD14601932DE619F0B2
:20602000040F00F0C880BCF1000FC0F2DE807D490B78012B7FF417AF4B7893427FF413AFCE
:20604000794A754B102013F80E901160029103F045FE029903464A46023107F11800FFF7FD
:2060600067FDBAE7DAF80030197801F0F801F029BED11121B971187800F0F301F03900F00D
:206080000400C0B20329C4D8DFE801F0382F2002597802330909A1F5756189B2090241F086
:2060A000F001398513F8011C01F00F01A1F5756189B2090241F0F0017985CAF8003000281C
:2060C00000F0BC80303288F8002091E759780433A1F5805189B2090241F0F001398533F85A
:2060E000021CCAF800307985E9E7B3F801100433398513F8011CA1F58051D9E7B3F8011006
:206100000533398533F8021CCAF800307985D6E7464A0F20D25CCDF80CC0029203F0DEFDB3
:20612000029A0346424907F10800FFF701FDDDF80CC035E703F012FD99F8002098F80030CB
:20614000801A0344283B1A127B713A715DE7002360223A707B707B805EE6DAF80020602306
:2061600010463B7010F8013B03324FEA930E0EF0300E03F00F034EEA03037B700388CAF814
:2061800000207B8048E62A7831680A449278120961E6BB884FF0000ABB85009BD1460193AF
:2061A0006BE516F8020C314603EBC000009307F093FC009BBAE61D4B102013F80E9003F0C6
:2061C0008DFD4A4603461A4907F11800FFF7B0FC03E7487890427FF446AE134A881C1160F2
:2061E00007F1080205900492CAE632682B7813449A7802F00F021AE7DAF8003013F8012BDF
:206200008DF81D20CAF80030DEE600BF0C2500201B0C0020180C002054E1000034E1000021
:2062200050E10000040C0020880A00203CE1000040E10000940A0020C024002033F8021B03
:20624000F985CAF800303DE72DE9F04FB14EDFF8F4A2002387B033708AF80030054603F0FC
:20626000AFFC03F067FCAC4BAC4C1B6820600BB1FFF7FCFA04A80190002D00F0A682294692
:2062800003F058FDA64B1B883E2B36D99AF80070D4F8008000230237A24D08F80730A248F0
:2062A00008F102032B60FFF707FB002800F00F8108F103032B604FF08009DFF874B29BF8D3
:2062C00001209BF80010130943EA0113DBB2980840EA8313DBB210075FFA83FE5FD1BBF84F
:2062E000020000285BD1080740F0F98012F0F00F40F0F5807823029361E0DFF834B29AF82A
:2063000000C0DE4623680CF10105EDB241221D441A700BF1200877460FCF47452860696082
:20632000AA60EB600EF1100E05F11005F3D1BEE803002860696033780CF1290C28338AF868
:2063400000C033700199102003F0BCFC774B744D1B689847724B0028B3F8009036789AF820
:206360000080ACBFC0F17D076827C6EB0902C8EB0703B8BF15209A4240F3B880C0F17803D6
:206380001E46029303F0CCF899FBF6F909F101098145C0F2D980002007B0BDE8F08F0907EA
:2063A00003D112F0F00F00F084802A68DBF800001346106003F804EB2B60602302939BF8C6
:2063C0000630112B00F005822A6802F8013B9BF807302A60402B00F00582FF2B00F0228218
:2063E000012B61D02A6802F8013B2A60BBF808304F4A3BB953892BB993891BB9D389002B3F
:2064000000F044824B48FFF757FA4B4B1860002800F07781427818F80730042043EA021367
:2064200008F807304349454AFFF7D2F960F03F005FFA80F99BF818303D49FF2B00F08F815D
:2064400001F118000391FFF737FA3B4A03991060002800F0CC8118F80720437818311343F0
:2064600008F807300020019AFFF7B2F949F004095FFA89F949EA00002F685FFA80FE9BF834
:2064800006302822112B3270294900F0108123689AF800209DF80800FF1A991898548AF899
:2064A000007081F801E04DE7029B43F0010302939CE7296823F03F031343214A0B70128836
:2064C000CB1C2B606823A1F80120029377E71948FFF7F2F900287FF4EBAE8146EDE62B686F
:2064E000702203F801EB02922B6068E720680BEB0601404407F0F0FA28884044801B80B2CA
:2065000003F012FB0198FFF7EBF9012007B0BDE8F08F00BFBF24002068110020100C002075
:20652000F8240020900A0020242500207CE100000C25002014250020880A002004250020FA
:206540000E250020C0240020C24BD4F8008093F80090C14E41464A46002308F10400336097
:2065600007F030FB2B88DFF818E36FEA83436FEA9343BA4AC3F3072309F104095FFA89F960
:2065800088F80030BEF8003028881178C9EB070703F1010C27F007071A0A88F80330B04E6F
:2065A000AC4B88F8010088F8022059443A4608EB090083F80090AEF800C0376007F08CFA23
:2065C00007EB090080B203F0AFFA02F0AFFFA54F804600283FF4DFAE0198FFF781F9404621
:2065E00002F0F2FF404602F0D9FF9B4B1B68012B3FF4D1AE043B012B7FF6CDAE2B883A6871
:206600006FEAC3436FEAD3439449C3F3072391F8008013703368029943442D881FFA83F85D
:206620008C4B21F007000521557030601970374632E0D6F8009020684A450346B8BF9146CC
:206640009AF80050B8BF3A6083F804E04A46284407F042FA09EB050080B203F065FA02F04A
:2066600065FF054600283FF496AE0198FFF738F9284602F0A9FF284602F090FF764A3368BA
:2066800012689844012AA2F104031FFA88F83FF482AE012B7FF67FAE734B0BEB08011B88B5
:2066A0004FEAD80E9845C8EB0302C2D32DE74FF2B0020B8D5BBA9BB223F00F0080B290426A
:2066C0004A8D52BA92B200F0B28002F47F42B2F5704F00F0308103F47F43B3F5704F00F0A3
:2066E000FA80624BF0223A7018687B1DC7F801001F465F4B30221B88327027F8023B2F604E
:20670000C5E648F2FE03BBF808205A499A420FD14B8B6BB98B8B5BB9CB8B4BB9083104207E
:20672000554AFFF755F840EA09005FFA80F981E6D5F800C0DFF84CE10CF110032B60BEE839
:206740000F00CCF80410CCF80000CCF80820CCF80C309BF818304749FF2B7FF471AE91F8F2
:2067600019C049F0080EBCF1020F5FFA8EFE4B8B00F0BC80002B43D18B8B002B40D1BBF808
:206780001E303C48002B3BD1038C33B9438C23B990F82430002B00F0DA80BBF82020354B06
:2067A00072BB93F822205ABB2F6849F0090E3A4602F801CB53F8231F063747F8051C1B79DF
:2067C0005FFA8EFE13712F6059E62C4903F0B2FA58E5029B43F0040302939BF80730402B90
:2067E0007FF4FBAD029B43F002030293FEE548F2FE030A8B9A4202D14B8B002B5BD0CE4672
:20680000D5F80080DFF880C008F11007BCE80F002F60C8F80000C8F80410C8F80820C8F886
:206820000C302CE6029B43F003030293DEE522F00F0C84457FF449AFF3233B704B8D0A8D4B
:206840001B0A120A03EB021303F5AA637B70BB1C4EE700BFC0240020140C0020BF240020F2
:2068600064110020100C0020F8240020342500203A2500200C2500200425002074E1000024
:20688000A42400201425002024250020138A002B7FF4B8AD538A002B7FF4B4AD938A002B8A
:2068A0007FF4B0ADD38A002B7FF4ACAD49F040095FFA89F9BEE58B8B002BA0D1CB8B002B81
:2068C0009DD11831019AFEF783FF40EA09005FFA80FE2F68D3E5F2233B70BBF82830244A5D
:2068E0001B0A7B7012883B1D7A8001E7002B87D18B8B002B84D1CB8B002B7FF440AF0B8C21
:20690000002B7FF43CAF4B8C002B7FF438AF8B8C002B7FF434AF91F82630002B7FF42FAF9F
